{
  "_format": "hh-sol-artifact-1",
  "contractName": "Box",
  "sourceName": "contracts/Box.sol",
  "abi": [
    {
      "anonymous": false,
      "inputs": [
        {
          "indexed": true,
          "internalType": "address",
          "name": "previousOwner",
          "type": "address"
        },
        {
          "indexed": true,
          "internalType": "address",
          "name": "newOwner",
          "type": "address"
        }
      ],
      "name": "OwnershipTransferred",
      "type": "event"
    },
    {
      "anonymous": false,
      "inputs": [
        {
          "indexed": false,
          "internalType": "uint256",
          "name": "value",
          "type": "uint256"
        }
      ],
      "name": "ValueChanged",
      "type": "event"
    },
    {
      "inputs": [
        {
          "internalType": "uint256",
          "name": "value",
          "type": "uint256"
        }
      ],
      "name": "initialize",
      "outputs": [],
      "stateMutability": "nonpayable",
      "type": "function"
    },
    {
      "inputs": [],
      "name": "owner",
      "outputs": [
        {
          "internalType": "address",
          "name": "",
          "type": "address"
        }
      ],
      "stateMutability": "view",
      "type": "function"
    },
    {
      "inputs": [],
      "name": "renounceOwnership",
      "outputs": [],
      "stateMutability": "nonpayable",
      "type": "function"
    },
    {
      "inputs": [],
      "name": "retrieve",
      "outputs": [
        {
          "internalType": "uint256",
          "name": "",
          "type": "uint256"
        }
      ],
      "stateMutability": "view",
      "type": "function"
    },
    {
      "inputs": [
        {
          "internalType": "uint256",
          "name": "value",
          "type": "uint256"
        }
      ],
      "name": "store",
      "outputs": [],
      "stateMutability": "nonpayable",
      "type": "function"
    },
    {
      "inputs": [
        {
          "internalType": "address",
          "name": "newOwner",
          "type": "address"
        }
      ],
      "name": "transferOwnership",
      "outputs": [],
      "stateMutability": "nonpayable",
      "type": "function"
    }
  ],
  "bytecode": "0x608060405234801561001057600080fd5b5061086e806100206000396000f3fe608060405234801561001057600080fd5b50600436106100625760003560e01c80632e64cec1146100675780636057361d14610085578063715018a6146100a15780638da5cb5b146100ab578063f2fde38b146100c9578063fe4b84df146100e5575b600080fd5b61006f610101565b60405161007c9190610569565b60405180910390f35b61009f600480360381019061009a91906105b5565b61010b565b005b6100a96101c8565b005b6100b3610250565b6040516100c09190610623565b60405180910390f35b6100e360048036038101906100de919061066a565b61027a565b005b6100ff60048036038101906100fa91906105b5565b610372565b005b6000606554905090565b61011361045e565b73ffffffffffffffffffffffffffffffffffffffff16610131610250565b73ffffffffffffffffffffffffffffffffffffffff1614610187576040517f08c379a000000000000000000000000000000000000000000000000000000000815260040161017e906106f4565b60405180910390fd5b806065819055507f93fe6d397c74fdf1402a8b72e47b68512f0510d7b98a4bc4cbdf6ac7108b3c59816040516101bd9190610569565b60405180910390a150565b6101d061045e565b73ffffffffffffffffffffffffffffffffffffffff166101ee610250565b73ffffffffffffffffffffffffffffffffffffffff1614610244576040517f08c379a000000000000000000000000000000000000000000000000000000000815260040161023b906106f4565b60405180910390fd5b61024e6000610466565b565b6000603360009054906101000a900473ffffffffffffffffffffffffffffffffffffffff16905090565b61028261045e565b73ffffffffffffffffffffffffffffffffffffffff166102a0610250565b73ffffffffffffffffffffffffffffffffffffffff16146102f6576040517f08c379a00000000000000000000000000000000000000000000000000000000081526004016102ed906106f4565b60405180910390fd5b600073ffffffffffffffffffffffffffffffffffffffff168173ffffffffffffffffffffffffffffffffffffffff161415610366576040517f08c379a000000000000000000000000000000000000000000000000000000000815260040161035d90610786565b60405180910390fd5b61036f81610466565b50565b600060019054906101000a900460ff1661039a5760008054906101000a900460ff16156103a3565b6103a261052c565b5b6103e2576040517f08c379a00000000000000000000000000000000000000000000000000000000081526004016103d990610818565b60405180910390fd5b60008060019054906101000a900460ff161590508015610432576001600060016101000a81548160ff02191690831515021790555060016000806101000a81548160ff0219169083151502179055505b81606581905550801561045a5760008060016101000a81548160ff0219169083151502179055505b5050565b600033905090565b6000603360009054906101000a900473ffffffffffffffffffffffffffffffffffffffff16905081603360006101000a81548173ffffffffffffffffffffffffffffffffffffffff021916908373ffffffffffffffffffffffffffffffffffffffff1602179055508173ffffffffffffffffffffffffffffffffffffffff168173ffffffffffffffffffffffffffffffffffffffff167f8be0079c531659141344cd1fd0a4f28419497f9722a3daafe3b4186f6b6457e060405160405180910390a35050565b60006105373061053d565b15905090565b600080823b905060008111915050919050565b6000819050919050565b61056381610550565b82525050565b600060208201905061057e600083018461055a565b92915050565b600080fd5b61059281610550565b811461059d57600080fd5b50565b6000813590506105af81610589565b92915050565b6000602082840312156105cb576105ca610584565b5b60006105d9848285016105a0565b91505092915050565b600073ffffffffffffffffffffffffffffffffffffffff82169050919050565b600061060d826105e2565b9050919050565b61061d81610602565b82525050565b60006020820190506106386000830184610614565b92915050565b61064781610602565b811461065257600080fd5b50565b6000813590506106648161063e565b92915050565b6000602082840312156106805761067f610584565b5b600061068e84828501610655565b91505092915050565b600082825260208201905092915050565b7f4f776e61626c653a2063616c6c6572206973206e6f7420746865206f776e6572600082015250565b60006106de602083610697565b91506106e9826106a8565b602082019050919050565b6000602082019050818103600083015261070d816106d1565b9050919050565b7f4f776e61626c653a206e6577206f776e657220697320746865207a65726f206160008201527f6464726573730000000000000000000000000000000000000000000000000000602082015250565b6000610770602683610697565b915061077b82610714565b604082019050919050565b6000602082019050818103600083015261079f81610763565b9050919050565b7f496e697469616c697a61626c653a20636f6e747261637420697320616c72656160008201527f647920696e697469616c697a6564000000000000000000000000000000000000602082015250565b6000610802602e83610697565b915061080d826107a6565b604082019050919050565b60006020820190508181036000830152610831816107f5565b905091905056fea26469706673582212207cc3708898bc6ebeb8c93428dbab27666b7a02a60e04e9cafd693950c4a7089064736f6c634300080a0033",
  "linkReferences": {},
  "deployedLinkReferences": {}
}