{
  "_format": "hh-sol-artifact-1",
  "contractName": "BoxV2",
  "sourceName": "contracts/BoxV2.sol",
  "abi": [
    {
      "anonymous": false,
      "inputs": [
        {
          "indexed": true,
          "internalType": "address",
          "name": "previousOwner",
          "type": "address"
        },
        {
          "indexed": true,
          "internalType": "address",
          "name": "newOwner",
          "type": "address"
        }
      ],
      "name": "OwnershipTransferred",
      "type": "event"
    },
    {
      "anonymous": false,
      "inputs": [
        {
          "indexed": false,
          "internalType": "uint256",
          "name": "value",
          "type": "uint256"
        }
      ],
      "name": "ValueChanged",
      "type": "event"
    },
    {
      "inputs": [],
      "name": "increment",
      "outputs": [],
      "stateMutability": "nonpayable",
      "type": "function"
    },
    {
      "inputs": [
        {
          "internalType": "uint256",
          "name": "value",
          "type": "uint256"
        }
      ],
      "name": "initialize",
      "outputs": [],
      "stateMutability": "nonpayable",
      "type": "function"
    },
    {
      "inputs": [],
      "name": "owner",
      "outputs": [
        {
          "internalType": "address",
          "name": "",
          "type": "address"
        }
      ],
      "stateMutability": "view",
      "type": "function"
    },
    {
      "inputs": [],
      "name": "renounceOwnership",
      "outputs": [],
      "stateMutability": "nonpayable",
      "type": "function"
    },
    {
      "inputs": [],
      "name": "retrieve",
      "outputs": [
        {
          "internalType": "uint256",
          "name": "",
          "type": "uint256"
        }
      ],
      "stateMutability": "view",
      "type": "function"
    },
    {
      "inputs": [
        {
          "internalType": "uint256",
          "name": "value",
          "type": "uint256"
        }
      ],
      "name": "store",
      "outputs": [],
      "stateMutability": "nonpayable",
      "type": "function"
    },
    {
      "inputs": [
        {
          "internalType": "address",
          "name": "newOwner",
          "type": "address"
        }
      ],
      "name": "transferOwnership",
      "outputs": [],
      "stateMutability": "nonpayable",
      "type": "function"
    }
  ],
  "bytecode": "0x608060405234801561001057600080fd5b506109e4806100206000396000f3fe608060405234801561001057600080fd5b506004361061007d5760003560e01c80638da5cb5b1161005b5780638da5cb5b146100c6578063d09de08a146100e4578063f2fde38b146100ee578063fe4b84df1461010a5761007d565b80632e64cec1146100825780636057361d146100a0578063715018a6146100bc575b600080fd5b61008a610126565b604051610097919061065a565b60405180910390f35b6100ba60048036038101906100b591906106a6565b610130565b005b6100c46101ed565b005b6100ce610275565b6040516100db9190610714565b60405180910390f35b6100ec61029f565b005b6101086004803603810190610103919061075b565b61036b565b005b610124600480360381019061011f91906106a6565b610463565b005b6000606554905090565b61013861054f565b73ffffffffffffffffffffffffffffffffffffffff16610156610275565b73ffffffffffffffffffffffffffffffffffffffff16146101ac576040517f08c379a00000000000000000000000000000000000000000000000000000000081526004016101a3906107e5565b60405180910390fd5b806065819055507f93fe6d397c74fdf1402a8b72e47b68512f0510d7b98a4bc4cbdf6ac7108b3c59816040516101e2919061065a565b60405180910390a150565b6101f561054f565b73ffffffffffffffffffffffffffffffffffffffff16610213610275565b73ffffffffffffffffffffffffffffffffffffffff1614610269576040517f08c379a0000000000000000000000000000000000000000000000000000000008152600401610260906107e5565b60405180910390fd5b6102736000610557565b565b6000603360009054906101000a900473ffffffffffffffffffffffffffffffffffffffff16905090565b6102a761054f565b73ffffffffffffffffffffffffffffffffffffffff166102c5610275565b73ffffffffffffffffffffffffffffffffffffffff161461031b576040517f08c379a0000000000000000000000000000000000000000000000000000000008152600401610312906107e5565b60405180910390fd5b600160655461032a9190610834565b6065819055507f93fe6d397c74fdf1402a8b72e47b68512f0510d7b98a4bc4cbdf6ac7108b3c59606554604051610361919061065a565b60405180910390a1565b61037361054f565b73ffffffffffffffffffffffffffffffffffffffff16610391610275565b73ffffffffffffffffffffffffffffffffffffffff16146103e7576040517f08c379a00000000000000000000000000000000000000000000000000000000081526004016103de906107e5565b60405180910390fd5b600073ffffffffffffffffffffffffffffffffffffffff168173ffffffffffffffffffffffffffffffffffffffff161415610457576040517f08c379a000000000000000000000000000000000000000000000000000000000815260040161044e906108fc565b60405180910390fd5b61046081610557565b50565b600060019054906101000a900460ff1661048b5760008054906101000a900460ff1615610494565b61049361061d565b5b6104d3576040517f08c379a00000000000000000000000000000000000000000000000000000000081526004016104ca9061098e565b60405180910390fd5b60008060019054906101000a900460ff161590508015610523576001600060016101000a81548160ff02191690831515021790555060016000806101000a81548160ff0219169083151502179055505b81606581905550801561054b5760008060016101000a81548160ff0219169083151502179055505b5050565b600033905090565b6000603360009054906101000a900473ffffffffffffffffffffffffffffffffffffffff16905081603360006101000a81548173ffffffffffffffffffffffffffffffffffffffff021916908373ffffffffffffffffffffffffffffffffffffffff1602179055508173ffffffffffffffffffffffffffffffffffffffff168173ffffffffffffffffffffffffffffffffffffffff167f8be0079c531659141344cd1fd0a4f28419497f9722a3daafe3b4186f6b6457e060405160405180910390a35050565b60006106283061062e565b15905090565b600080823b905060008111915050919050565b6000819050919050565b61065481610641565b82525050565b600060208201905061066f600083018461064b565b92915050565b600080fd5b61068381610641565b811461068e57600080fd5b50565b6000813590506106a08161067a565b92915050565b6000602082840312156106bc576106bb610675565b5b60006106ca84828501610691565b91505092915050565b600073ffffffffffffffffffffffffffffffffffffffff82169050919050565b60006106fe826106d3565b9050919050565b61070e816106f3565b82525050565b60006020820190506107296000830184610705565b92915050565b610738816106f3565b811461074357600080fd5b50565b6000813590506107558161072f565b92915050565b60006020828403121561077157610770610675565b5b600061077f84828501610746565b91505092915050565b600082825260208201905092915050565b7f4f776e61626c653a2063616c6c6572206973206e6f7420746865206f776e6572600082015250565b60006107cf602083610788565b91506107da82610799565b602082019050919050565b600060208201905081810360008301526107fe816107c2565b9050919050565b7f4e487b7100000000000000000000000000000000000000000000000000000000600052601160045260246000fd5b600061083f82610641565b915061084a83610641565b9250827fffffffffffffffffffffffffffffffffffffffffffffffffffffffffffffffff0382111561087f5761087e610805565b5b828201905092915050565b7f4f776e61626c653a206e6577206f776e657220697320746865207a65726f206160008201527f6464726573730000000000000000000000000000000000000000000000000000602082015250565b60006108e6602683610788565b91506108f18261088a565b604082019050919050565b60006020820190508181036000830152610915816108d9565b9050919050565b7f496e697469616c697a61626c653a20636f6e747261637420697320616c72656160008201527f647920696e697469616c697a6564000000000000000000000000000000000000602082015250565b6000610978602e83610788565b91506109838261091c565b604082019050919050565b600060208201905081810360008301526109a78161096b565b905091905056fea2646970667358221220f8a1824cf863f762e29834a22b7a5dedc42ba4cb21a6a11def863377baea6d0864736f6c634300080a0033",
  "linkReferences": {},
  "deployedLinkReferences": {}
}